:020000040001F9
:10B000006042002041B101005BB101005DB101006F
:10B010000000000000000000000000000000000030
:10B02000000000000000000000000000D5B001009A
:10B03000000000000000000001B1010063B1010048
:10B0400065B1010065B1010099B5010065B101006C
:10B0500065B1010000000000D5B2010065B101003A
:10B0600065B1010065B1010065B1010065B1010084
:10B0700065B1010065B1010065B1010065B1010074
:10B0800065B1010029B4010065B1010065B101009D
:10B0900065B1010065B10100D9B4010065B10100DD
:10B0A00065B1010065B10100000000000000000072
:10B0B0000000000000000000000000000000000090
:10B0C0000348854600F0C8F8004800474DE40100F9
:10B0D000604200200848006880F30888174B196810
:10B0E0000868203080F30988022080F314883FBC70
:10B0F000AE4662B600BD000000B0010000000000D6
:10B10000EFF309800D4B1A6820381060F0C04446F8
:10B110004D4656465F46F0C008B504F0FFFF0CBC34
:10B12000116808681030F0C8A046A946B246BB4670
:10B1300080F309882038F0C818470000F820002064
:10B140000321094802680A430260084802680A436A
:10B1500002600748804707480047FEE7FEE7FEE732
:10B16000FEE7FEE7FEE7000024050040540500402E
:10B17000F9B40100C1B0010030B50B460146002012
:10B180002022012409E00D46D5409D4205D31D46ED
:10B190009540491B2546954040191546521E002DE5
:10B1A000F1DC30BD70B500242546002801DA012409
:10B1B0004042002901DA01254942FFF7DDFFAC4298
:10B1C00000D04042002C00D0494270BD10B5431A57
:10B1D000934209D28318881803E0401E01785B1E51
:10B1E0001970521EF9D210BD03460B439B0703D0C2
:10B1F00009E008C9121F08C0042AFAD203E00B783C
:10B200000370401C491C521EF9D210BDD2B201E09D
:10B210000270401C491EFBD270470022F6E710B5B1
:10B2200013460A4604461946FFF7F0FF204610BDB4
:10B23000421C0178401C0029FBD1801A704730B5B0
:10B2400004460020034600E05B1C934203D2E05C0E
:10B25000CD5C401BF8D030BD064C0125064E05E004
:10B26000E36807CC2B430C3C98471034B442F7D327
:10B27000FFF72AFF6C0D02008C0D020070B58C18D0
:10B280000578401C6B075B0F01D10378401C2A1125
:10B2900006D10278401C03E006780E70401C491C61
:10B2A0005B1EF9D12B0705D40023521E0DD40B7061
:10B2B000491CFAE70378401CCB1A921C03E01D7866
:10B2C0000D70491C5B1C521EF9D5A142D8D3002039
:10B2D00070BD0000F0B50025FF248BB001340126BD
:10B2E0002F460195204603F0C3FA002808D04748AE
:10B2F0004068304204D046480021201835430160A0
:10B30000241D76007F1CA4B2042FEBD3FF207D30D8
:10B3100003F0AEFA002807D03E4800210160400744
:10B3200005433D48006901903C4C280712D0012795
:10B3300000262F420AD03A48B2001118086909695C
:10B34000C004C00E8903A258890F90477F00761C65
:10B35000042EEED3002D57DA00200590401E4DE05C
:10B36000A119403108788506AD0E42B2521C39D081
:10B370000121A940089A0091114233D0800903901D
:10B38000284601F0D7FD800020580490002802D103
:10B390000398032826D103980099032802D1059821
:10B3A000084305901F4AA80080180068019A80038E
:10B3B000800F114202D0022802D013E0032811D1DD
:10B3C0000399032907D102281CD00221284603F043
:10B3D0003FFA7F1CFFB20498002803D0049A284645
:10B3E00003999047761C042EBAD3002F0CD00A483C
:10B3F00000690199884207D00190059800273E46D0
:10B400000890ADE70321E1E70BB0F0BD0063004019
:10B41000006000407C61004000050050A83800201A
:10B42000006500400007005038B528488115002409
:10B430004450FF2141314450EFF310800094002824
:10B440001DD104F031FA002811D001F095FF012838
:10B4500015D9684604F00AF8002801D000F04CFA2B
:10B4600069468878012108436946887007E072B60A
:10B470006846447081780220014368468170009CD0
:10B4800005F0AEFA12494968081A0002000A0DD008
:10B49000022802D9401E04F0C1FF05F0A7FA0028D7
:10B4A00004D001200B490007486040BF6846009463
:10B4B0008078810703D56946497881F31088C007F1
:10B4C00003D06846007804F029F838BD0010014028
:10B4D0000015014000ED00E010B506484068002866
:10B4E00005D08047002801D000F006FA10BD02F018
:10B4F000E3FE10BD1C22002010B502F025FF00283D
:10B5000005D01F491D484860C8131E4988611E4860
:10B51000018CC9B201290BD1828C120708D1028D8E
:10B520001206120F042A03D1828D1206120F0AD0BE
:10B53000012921D1818C09071ED1018D0906090F2E
:10B540000A2904D007E0114A01219160F5E7828DB4
:10B550001206120F05D00D290ED1808D0006000FA6
:10B560000AD10B480168012904D00A490160016829
:10B570000129FCD1C021416110BD0000DFFF07C0DF
:10B5800000050040006C0040C00F00F000060040C5
:10B5900000EC06407593000010B504F043FB10BDAD
:10B5A00030B47446641E2578641CAB4200D21D463C
:10B5B000635D5B00E31830BC184702E008C8121F47
:10B5C00008C1002AFAD170477047002001E001C18C
:10B5D000121F002AFBD17047F7B584B000251688EA
:10B5E00007461580406B1446002813D00378059851
:10B5F000032E51D30221017021881122491C89B2E6
:10B60000218042542188491C89B2218043542088DA
:10B61000401C2080386B00281DD0054620880599E5
:10B6200002461232B24237D811220A542088102220
:10B63000401C80B220800A542088401C20800F20AB
:10B640002A5C2388401ECA54228840B2521C2280A1
:10B650000028F5DA0025384620300290807B00284B
:10B6600006D033462246059902F0BAFE050014D1F1
:10B670000298407B002806D032462146059800F00B
:10B6800091FE050009D1B878002823D00598864698
:10B690002088001DB04202D90C2007B0F0BD6846DA
:10B6A00079DF0028F9D12188032072465054208880
:10B6B0001921401C80B22080115420887146401C02
:10B6C00080B2208041186846008804F03FFB218842
:10B6D00040182080F878002817D0218803230A46D4
:10B6E000FB56C91C0598B142D6D802218154218845
:10B6F0000122491C89B2218042542188491C89B207
:10B70000218043542088401C20807868002817D06E
:10B7100021880023C3560A46C91C0598B142BBD8EC
:10B720000221815421880A22491C89B22180425475
:10B730002188491C89B2218043542088401C2080E4
:10B74000388900280AD00094384601960622022142
:10B750000830059B04F096FB05009ED1388A00282E
:10B760000AD0009438460196072203211030059B29
:10B7700004F088FB050090D1388B00280AD0009493
:10B7800038460196152214211830059B04F07AFBE7
:10B79000050082D1386A002806D033462246059932
:10B7A00001F020FD0500D8D1786A002806D0334684
:10B7B0002246059902F08AFE0500CED10298007B50
:10B7C000002807D0334622463846059903F02FFF5C
:10B7D0000500C2D13878002807D0334622463846C3
:10B7E000059902F0A7FE0500B7D1284655E710B528
:10B7F00001220221002001F0C9F9002801D0072808
:10B8000012D107220221012001F0C0F9002801D045
:10B81000072809D100210A22084601F0B7F90028BB
:10B8200001D0072800D1002010BD00000448426864
:10B830000121C9050B46934383600A40C2607047EB
:10B840000005005070B50024064D06E06968E00070
:10B85000085C012102F00CFF641C28788442F5D3B7
:10B86000002070BD04220020F8B515460C4606469F
:10B87000052A01D20720F8BD02F0D0FF002803D12D
:10B8800002F0A2FF0028F6D1104900204E600C7093
:10B89000C8608D6008610E4D0DE0E0006968801998
:10B8A000009181786A46517000780A4A694602F030
:10B8B0002FFF0028DFD12046641EE4B20028ECD11F
:10B8C000054A0021024800F05BF8F8BD0422002080
:10B8D000640D02005DE0010085D40100BFF34F8FCD
:10B8E00004490348C860BFF34F8F00BFFDE7000065
:10B8F0000400FA0500ED00E00EB500210290009171
:10B900006A4601910148FFF7E9FF0EBD01400000C2
:10B91000014B1B68184700007838002038B50C46EA
:10B92000A2680C235A43064B09789D58054A126AAF
:10B9300000920246204608302369A84738BD00001F
:10B94000D8390020E021002010B5064914230A78D8
:10B950005A435118091DFFF7E1FF042003F03AFF95
:10B9600010BD00000C39002010B503F0B7FC017BBE
:10B97000002903D0016882680846904710BD000086
:10B9800038B500250468002A05D0002803D0207BA4
:10B99000002805D101E0072038BD6068002801D0EB
:10B9A000082038BD0020206000290ED00120A260B0
:10B9B0000849009102467D212346C90006A005F0F2
:10B9C0000FF96060002802D002E00020EFE70E25AA
:10B9D000284638BD69B90100200000000249401C1A
:10B9E000086000207047000018220020FEB50446C1
:10B9F00046682F48154680682E4A401C12685143FD
:10BA000042088A1801461046FFF7B6FB0746002E8B
:10BA100009D0207B002808D0304605F045F90028E1
:10BA200003D00020FEBD0820FEBDEFF30580256099
:10BA3000002822D00025019501AB3A460921304665
:10BA4000009505F00BF901282CD104F0C9FF02463E
:10BA500001AB06213046009505F000F9012821D1FF
:10BA60000198002820D0012013490007486040BFFA
:10BA7000BFF34F8FBFF36F8F16E0022500233A46C6
:10BA800004213046009505F0E9F801280AD104F0B8
:10BA9000A1FF0246002301213046009505F0DEF8A3
:10BAA000012801D00420FEBD01202073B9E7000069
:10BAB000001501401822002000ED00E07CB541682F
:10BAC0000024054600290DD0EFF30581002918D088
:10BAD000019401AB00220821009405F0BFF8012871
:10BAE00018D101E008207CBD0198002814D0012065
:10BAF0000B490007486040BFBFF34F8FBFF36F8F04
:10BB00000AE00221002300911A46032105F0A6F85D
:10BB1000012801D004207CBD2C7300207CBD0000D6
:10BB200000ED00E038B504F055FF02251B4C02463D
:10BB3000009500230121E06805F090F8012802D06B
:10BB40000420FFF7D9FE04F045FF024600950023CC
:10BB50000121206905F082F8012802D00420FFF7B6
:10BB6000CBFE04F037FF02460095002301216069F7
:10BB700005F074F8012802D00420FFF7BDFE04F0A0
:10BB800029FF0246009500230121A06905F066F80F
:10BB9000012802D00420FFF7AFFE38BD802000202E
:10BBA000F0B50546007D002493B00E4600280DD068
:10BBB000012001466846103103940173717B417383
:10BBC000817BF92001406846891C81731C2104A8EF
:10BBD000FFF723FB6946087C022108436946087485
:10BBE0002A7DEF21002A02D01022104300E00840F5
:10BBF0006A461074059407940894287D002800D0A4
:10BC000003A8099001270A9410469771304A828050
:10BC10000094B27B0270F27B42708078F92210406F
:10BC2000F722801C1040EF21084041084900684677
:10BC30008170317B017214210BA8FFF7EEFA01A885
:10BC40000B9068460C908786C486078702A80F90E1
:10BC5000A888AB1D0BAA04A9A2DF002835D1B068C3
:10BC6000002830D0684687711A4981800094317C61
:10BC7000017000200146684641708078F921084033
:10BC8000F721801C0840EF21084041084900684620
:10BC9000817011A8B16800F042FD064614210BA87E
:10BCA000FFF7BBFA01A80B9068460C908686C48605
:10BCB000068711A80F902A46E8880E320BA9A3DF49
:10BCC000002802D100E0EC81002013B0F0BD00009C
:10BCD000192A00000829000010B50B490B4803F091
:10BCE00099FCC1B20848683800F05CFA002809D015
:10BCF000082807D00649884204D00649884201D066
:10BD0000FFF7FAFD10BD0000B4240020A42000209D
:10BD10000430000001340000F0B50C4693B01F2140
:10BD20006A461180072600279180002809D0C17833
:10BD300049070DD502A9FFF74FFC002809D102AD34
:10BD400001E000251780002C0ED0E078002802D0FA
:10BD5000304613B0F0BD01AA0AA92046FFF73CFC0B
:10BD60000028F6D10AAA02E06846002287806846C9
:10BD70008088C3B268460088C1B2284672DFE8E70F
:10BD800070B50D4604991646040042D0002E40D0EE
:10BD9000424800224271C36001612422314640487A
:10BDA000FFF714FA00F0D4F83D4934310846103852
:10BDB00001602031816038215C38FFF72EFA384865
:10BDC000217838380170A1788170E178C17061788C
:10BDD00041706269216942610161E268A168C260E3
:10BDE00081600146E369A269CB618A61616A0029C9
:10BDF00019D00146AC310246B83241628A60636AAA
:10BE00001B880B80616A436A898899800021436A94
:10BE100006E00E2070BD666AB668765C5654491C12
:10BE20009E888E42F7D8A16A00291CD01C4AAC32E9
:10BE300011460C398A608162A36A9B888B80A16A53
:10BE4000836A098819800021836A04E0A66AB668BB
:10BE5000765C5654491C9E888E42F7D82C210A5D88
:10BE60000F4918390A73216A002909D00B49143186
:10BE70000162226A52884A80216A026A0988118016
:10BE80006168002904D00549891D416061684160ED
:10BE9000034829463838FFF73FFF70BD482100208E
:10BEA0006036002010B502881C4C102A17D00021E3
:10BEB000112A1AD01B2A11D1007A00280ED16079DC
:10BEC00001281ED0022822D0032822D0042805D120
:10BED0002171E2680846002A00D0904710BD817D9C
:10BEE0000129FBD18088208110BD61708088218963
:10BEF0008842F9D1012005E021690029F4D0884762
:10BF000010BD022000F058F80028F5D110BD032024
:10BF1000F8E7032020710420F4E700004821002006
:10BF200010B5022801D003280ED1084C2078002833
:10BF30000AD000202070607900F03EF8002803D07D
:10BF40002169002900D0884710BD00004821002049
:10BF500010B507210148FFF760F910BD60210020EE
:10BF600010B51348007801281FD1124C60780028C2
:10BF70001BD16079002802D074DF002816D101207F
:10BF80000B49607006203839C870094800213838DC
:10BF9000FFF7C2FE002809D1607900F00DF80028F3
:10BFA00003D02169002900D08847002010BD00007F
:10BFB0006036002048210020F0B5784C87B06071D1
:10BFC000002606A8069602F01FFF0127082802D0C7
:10BFD000002808D104E006A801F028FF002804D1B9
:10BFE0000698002801D02770D4E0FFF7B1FF6C4D10
:10BFF0006878002802D06079012807D0A878002846
:10C000000CD06079012801D0022824D1E1680029F0
:10C0100003D0E7700820884700E0E67060790128C7
:10C0200008D16878002809D05C48193002F058FC23
:10C03000002803D06079022802D00CE00220607151
:10C04000A878002805D05548193002F049FC00288E
:10C0500001D103206071287B002804D16079032876
:10C0600001D104206071287E002804D16079042861
:10C0700001D166712671E16800290AD06079032830
:10C0800001D0042805D12878002802D06078002843
:10C0900017D0A67018216846FFF7BFF868460670EB
:10C0A000019606720396607901280ED0022815D0F9
:10C0B0003B4E243637465C3F03281BD004285DD115
:10C0C0003AE0A77007208847E4E734481830019029
:10C0D0006846077046820682277152E02F48183062
:10C0E00001906846077029894182A988018202204F
:10C0F000207146E0A88A69464882288A0882284832
:10C10000243004F0C1F9002805D02878002802D096
:10C110006078002801D003202FE0022069460872D1
:10C1200004200396F8701E4800213838FFF7F4FD0C
:10C13000002830D1052020E0A88B69460882288C91
:10C1400048821748243004F09FF9002805D0287849
:10C15000002802D06078002801D004200DE00220E1
:10C160006946087204200396F8700D48002138389B
:10C17000FFF7D2FD00280ED106202071607900283B
:10C1800003D0684673DF002805D1E168002901D09B
:10C1900020798847002007B0F0BD0000482100202A
:10C1A0006036002073B586B004002FD06A46217C2B
:10C1B000127F0020914227D0002501266846009575
:10C1C0000680458007A80190E188608A6A46A4DF5E
:10C1D000002819D16846007F2074608A0D49884282
:10C1E00016D0207D002813D002950395049505955F
:10C1F000E1886846018186724188818104900198B6
:10C200000590608A02A9A6DF08B070BD0E20FBE78A
:10C210000820F9E7FFFF000038B50D4604001AD0EA
:10C22000002D18D0286820600020C0436082287943
:10C230002075FF2020740121684681700749018024
:10C24000221D69460120A0DF002803D1294620468F
:10C25000FFF7A6FC38BD0E2038BD00000F18000007
:10C2600038B5002824D0002922D00A88102A1AD0F4
:10C27000112A1AD0502A1BD1027D002A18D0CA8850
:10C280004389891D9A4213D14A89022A10D1026832
:10C29000002A0DD04B7B0C7B19022143C907C90F23
:10C2A00007D0002106E0898801E00021C9434182CE
:10C2B00038BD01216B4619706946904738BD0000B2
:10C2C00070B5054601461C220E48FEF77FFF0E4C56
:10C2D000002626702968002906D00822201DFEF7B6
:10C2E00075FF201D7ADF02E00748001D7BDF002874
:10C2F00007D1401E60806670044A00210448FFF7A1
:10C300003FFB70BD4C3700206821002021FE01005A
:10C31000080D0200F8B5214C028800271E4DE68961
:10C32000102A15D01E49112A21D0122A2DD0502AA8
:10C330001CD1C288801DB24218D14289022A15D16F
:10C34000427B037B10021843C007C00F0CD112E0E0
:10C350008188698001461048082218310C30FEF7A8
:10C3600035FF6F70002E01D100F084FFF8BD002072
:10C37000C04368806F700868FFF7A0FB0028F5D005
:10C38000A1690029F2D08847F8BD08228118024827
:10C390000C30FEF71BFFE7E7682100204C37002038
:10C3A000080D02007CB5054608880C46093090420D
:10C3B00001D90C207CBD684671DF0028FAD12188A4
:10C3C0000820685420881B21401C80B220802954FA
:10C3D000208800A9401C80B220804019062201312B
:10C3E000FEF7F4FE20886946801D80B2208009781F
:10C3F000002900D0012129542088401C20800020E1
:10C400007CBD00007FB504460121684681714A4920
:10C4100081804A4A01A90120A0DF00287ED122881C
:10C4200025463C35002A09D044482B46801C009004
:10C430004348616800F086FD00287BD12289002AEC
:10C440000AD03E482B460A3000903D48E168401F24
:10C4500000F078FD00286DD1228A002A0AD03748E2
:10C460002B461230009036486169001F00F06AFDCB
:10C4700000285FD1228B002A0AD030482B461A3080
:10C4800000902F48E169801E00F05CFD002851D12A
:10C49000228C002A0AD029482B46223000902848B6
:10C4A000616AC01E00F04EFD002843D1228D002A93
:10C4B0000AD022482B462A3000902148E16A401ECB
:10C4C00000F040FD002835D1216B00290ED002A8D4
:10C4D00003F0F2FA19482B4632300090184808222F
:10C4E00002A9801F00F02EFD002823D1606B0028D8
:10C4F0000BD012492B463A3100910279016810485D
:10C50000401C00F01FFD002814D1A16B002910D0A1
:10C5100002A802F025FA0948423000E00AE0009043
:10C5200007482B46072202A9273000F00BFD002800
:10C5300000D1002004B070BD0A1800007C2100204A
:10C54000292A000070B5044601F0C6F821461248B9
:10C5500000F080F8104821461838FFF781FE204689
:10C56000FFF7D8FE204600F049FA20880B4D10282E
:10C5700002D011280CD108E0072000F02BFB002886
:10C5800001D0FFF7B9F9A08801E00020C043A880DE
:10C590002046FFF787FC70BD642400208020002027
:10C5A00030B50446008C134A8BB090421FD006AAC7
:10C5B000204601F03DFE69460546088000200190B6
:10C5C00002900390049022898A8001228A71088156
:10C5D00006A803910490208C01A9A6DF002804D1AD
:10C5E00069460988A94200D00C200BB030BD082054
:10C5F000FBE70000FFFF000038B504460868206034
:10C60000087960710020C0430D462084002022215B
:10C6100008554C2108530121684681700C4901805E
:10C62000A21D69460120A0DF00280FD1294620461F
:10C6300001F0A6FD002809D1A868002805D02946E8
:10C64000204600F049F9002800D1002038BD000044
:10C650000D18000038B50A88102A17D0112A17D0F3
:10C66000502A18D1CA888389891D9A4213D14A89D0
:10C67000022A10D10268002A0DD04B7B0C7B1902D4
:10C680002143C907C90F07D0002106E0898801E0CE
:10C690000021C943018438BD01216B4619706946E8
:10C6A000904738BD70B5054604464035A8890E460A
:10C6B000142807D12622A118881EFEF787FDA88915
:10C6C000401EA88180B241000919401CA8818E84B7
:10C6D00070BD20308170704708B500200090094877
:10C6E0006946C06904F06BF80098002808D0012062
:10C6F00005490007486040BFBFF34F8FBFF36F8FFE
:10C70000002008BD8020002000ED00E070B5044648
:10C710000D460846FEF78CFD2080656070BD0A78E6
:10C7200002704978417002207047000000B51A4835
:10C7300087B000680590194B4822194905A803F0F5
:10C7400099F8002801D0FFF7D7F86A4601210020A8
:10C7500003F078F8002801D0FFF7CEF8114802F076
:10C7600017FE002801D0FFF7C7F8684603F060F80D
:10C77000002801D0FFF7C0F80B4803F04FF800285D
:10C7800001D0FFF7B9F8094803F094F8002801D068
:10C79000FFF7B2F807B000BDC40C0200D9C6010013
:10C7A00004240020E81F002045C50100A9FA01006B
:10C7B00098B003F0B7F93F4A3F49032000F018FA58
:10C7C000002801D0FFF798F801A9002000F0ECF84C
:10C7D000002801D0FFF790F868460079022867D05A
:10C7E000002168460170FFF7A1FF6846007800F05D
:10C7F0003FFF01F027FB382101A8FEF70EFD0221C3
:10C8000068460171012484710621C1710325858266
:10C810002A48069024210FA8FEF7FFFC10A80472F6
:10C82000FF202D3000241390B42000941490244B4A
:10C830000FAA214601A8FFF7A3FA002801D0FFF7AD
:10C840005BF802F03BFF02F08FFE1C216846FEF70A
:10C85000E4FC1C4801901C48029000946846057353
:10C860001A4881896846C18104741948059019489D
:10C8700006906846FFF724FD002801D0FFF73CF83A
:10C88000FFF750F90320FFF797FB002801D0FFF7CF
:10C8900033F80024094DE4433C3D00232246194669
:10C8A000E86903F034FE0028F7D001F005FDF4E755
:10C8B000012196E755CB0100CD0C0000BC200020E3
:10C8C0009FE80100881300003075000064240020F8
:10C8D000C1E801006DD20100F0B58FB00D460646EB
:10C8E0001C216846FEF799FC684601780220014346
:10C8F0006846017000240194039404940594012770
:10C9000008A8069487701549684601840794E97B56
:10C910000177297C4177807FF9210840F721801C2D
:10C920000840EF21084041084900684681771421FA
:10C9300009A8FEF772FC08A8099007A80A906846A3
:10C940008785C4850786A8680D903346F088103324
:10C9500009AA6946A2DF0FB0F0BD0000382A000026
:10C960001CB5044681786A460C4802F061FA00283A
:10C9700012D160781C21484309491C2340181A46EB
:10C98000694602F00FFB064806494C30807A800069
:10C990000A582146684690471CBD0000D821002057
:10C9A0002C3800201C0D02007CB5134E00250C46CF
:10C9B0003060002918D06946002000F0B5F8002842
:10C9C00019D101A9012000F0AFF8002813D1684661
:10C9D00001790020002901D0022004E0694609788D
:10C9E000002900D00B2020707068002802D1FEF7CB
:10C9F000FEFE054628467CBDE020002010B51C4CFC
:10CA00000188606810290DD011290AD1401E60608C
:10CA100007D1FEF7ECFE002803D02168002900D0E2
:10CA2000884710BD00281ED100210122084600F0D1
:10CA3000ADF8002801D0072811D1072202210120DA
:10CA400000F0A4F8002801D0072808D10422022110
:10CA5000002000F09BF8002805D0072803D02168AB
:10CA6000002900D088476068401C606010BD00004D
:10CA7000E020002010B5032000F006FA002801D0C5
:10CA8000062800D1002010BDF8B507460024234831
:10CA900002E0641C042C1AD2A2008258BA42F8D1D7
:10CAA000042C14D21D481E4E0C38002929D001290F
:10CAB0000ED002290BD16000201880194578002D76
:10CAC00005D018480169002901D028468847F8BDDB
:10CAD00061006118755C8E19717800290CD01149BC
:10CAE0000A224968806851430E4A521CFEF77EFFB5
:10CAF000002801D10B4847700A48B178143001551D
:10CB0000DDE78068FEF7DAFF06486100611814303F
:10CB10008919005D8D78A842D1D0F8BDD40C0200EF
:10CB200024250020C820002004280CD2074A1269BE
:10CB3000074B80001B5C01209840904300D00120EF
:10CB40000870002070470020FAE700000005005040
:10CB5000D40C020010B5042806D007280ED00A28ED
:10CB600001D102F023FE10BD07481321808876DF33
:10CB700006E00028F7D0FEF7BFFE10BDFFF7F0F982
:10CB80000828F6D110BD00008020002070B50023D9
:10CB9000042811D2440004190D4D012A02D10129A3
:10CBA0000DD0002246008019094E801900290CD0B2
:10CBB000012906D0022906D00723184670BD0D3082
:10CBC000C2B22A55F9E74270F7E78270F5E7000034
:10CBD0002425002010B5054A0146127A0020D2070C
:10CBE00002D0084600F054F810BD0000C820002014
:10CBF00070B50E46204905464E608D6000200A61E2
:10CC0000A9071ED50024012211462046FFF7BEFFCA
:10CC1000641C042C02D20028F5D012E0002810D1A8
:10CC2000720804211548FEF71FFE002809D1FEF7FF
:10CC300009FE002805D11148114A00211438FEF7D9
:10CC40009FFEE90706D00F220E4952058A60002395
:10CC5000CB608A6100280DD108480B4A00211C389E
:10CC6000FEF78EFE002805D10448084A0121183835
:10CC7000FEF786FE70BD0000C8200020E40C020014
:10CC8000C5CE01000005005035E401002DB80100BB
:10CC9000FEB57A4D0722EB6892059A4302936B68C2
:10CCA00000939C0006461B190020012101934905B1
:10CCB0000746734C3300FEF773FC180D1515374704
:10CCC00055677C887F8891DE9E9E9E9E9EC8CED1B1
:10CCD000D8DEDE140F21029A49059143A160E76076
:10CCE0002F70FEBDA260E76060680F2252055040C1
:10CCF000800209D5A160E760022E02D1E120C000C8
:10CD00000AE07D20400107E0E160A760022E01D12A
:10CD1000C82001E0FF2091302E706421FEF72CFA2C
:10CD20000099414300223FE0A260E76060680F2263
:10CD300052055040800204D5A160E76019204001EF
:10CD4000EAE7E160A760E3E7A260E76060680F22BE
:10CD500052055040800202D5A160E760D1E7E16052
:10CD6000A760D7E7A260E76060680F2252055040D5
:10CD7000800202D5A160E76001E0E160A7602E704B
:10CD80000098410000220FE0A260E76060680F2277
:10CD900052055040800202D5A160E76001E0E160E9
:10CDA000A7602E700099002236480068FEF71EFE2C
:10CDB000FEBDA260E7601BE06168012080050246BD
:10CDC0008A43A2600140E16010E0606801218905AA
:10CDD0000A468243A2600840E060E3E76068012100
:10CDE00089050A468243A2600840E0600199C9E7CC
:10CDF000E160A7602DE023484068FEF75FFE112147
:10CE00008A1B01D0002807D00F22E9685205114083
:10CE1000A160E760EF60FEBD0121C905E960012A5C
:10CE20000CD91046C82148436421FEF7A5F969686A
:10CE30000022414313484068FEF7D8FD0F22E968FD
:10CE400052051140E160A760FEBD0F214905A160B8
:10CE5000E7602E70FEBD07229205AAE70D21490565
:10CE6000A160E76001218905C2E70321C905A1602E
:10CE7000E7608910BCE70F214905B9E7C820002009
:10CE800000050050C80C0200F0B500210B4C0C4D01
:10CE900003273F048A00A2589200561932680123E2
:10CEA0008B40034000D00323BA431B041343336079
:10CEB000491C0429EED30020F0BD0000D40C020070
:10CEC0000007005010B500780221FFF7DDFD10BD0E
:10CED0000022D243830004490428CA5002D3081810
:10CEE0002030027770470000A8380020F0B50025F8
:10CEF000ED43002A02D00023042601E00423082683
:10CF00000B4C04E09F00E7597F1C04D05B1CB3422C
:10CF1000F8D32846F0BD26185DB2203635709E0045
:10CF2000A151002AF5D1E11820310877F1E700007E
:10CF3000A838002002490918202008567047000030
:10CF4000A8380020FFB58FB01E4615460F0002D14D
:10CF50000020FEF7D1FC002D02D10020FEF7CCFC12
:10CF60001C216846FEF759F9684601780220014302
:10CF700068460170002401940394049405940121EF
:10CF800008A80694817068460F9901840794317847
:10CF9000017771784177807FF9210840F721801C63
:10CFA0000840EF2108404108490068468177142174
:10CFB00009A8FEF732F908A8099007A80A90684660
:10CFC0008585C485058604480D9709AA69460088A9
:10CFD000189BA2DF13B0F0BD7C210020F8B53E48BD
:10CFE0001422017851430C18E0680C2148433A4957
:10CFF0002769CC314018058941890091241D466874
:10D0000001F0A4FF01463846FEF7B6F8002932D0F9
:10D0100000200099A2884D436188AE198918CD1966
:10D0200000222E4900280A6109D001F08FFF618893
:10D03000884222D0B54202D1A08800281DD0A06825
:10D0400002281AD001F082FFA188CA1901461046B1
:10D05000FEF792F8214C8808E06001F077FF014666
:10D060002846FEF789F8002911D00020B5422FD0BC
:10D0700000280ED02CE00120CBE701F067FF01462D
:10D080003846FEF779F815494861032021E0012070
:10D09000ECE7ADB2B7B201F059FF01463846FEF7F2
:10D0A0006BF8064601F052FF01462846FEF764F889
:10D0B000864201D1781B09E001F048FF064601F0E5
:10D0C00045FF01462846FEF757F8701A8008206190
:10D0D000022002F07FFBF8BD0C390020E021002087
:10D0E00010B5074814220178514308180079042824
:10D0F00002D000F059F810BD012002F06BFB10BD0A
:10D100000C39002010B50B4814220178514308183F
:10D11000094AC18811620079012806D0032801D08C
:10D12000042801D1FFF75AFF10BD012002F052FB85
:10D1300010BD00000C390020E021002014225043D3
:10D14000054A002180180171C18001220161C2607D
:10D1500041610181704700000C390020F8B5104C86
:10D16000069E65780A2D19D027787D190A2D00D3DF
:10D170000A3D14277D432D1928716A6103C929616D
:10D18000E860EB802E816078401C60700548007874
:10D19000002801D1FFF7B6FF0020F8BD0420F8BD3C
:10D1A0000C390020E021002010B50D4C142120780E
:10D1B000484301190020091DFEF7B0FB2078FFF756
:10D1C000BDFF6078401E60702078401CC0B22070A7
:10D1D0000A2801D100202070002002F0FBFA10BDC7
:10D1E0000C390020F8B50646108814468446801D88
:10D1F0000D46984201D90C20F8BD32880720062A36
:10D20000FAD31927FF01184BBA4201D99A42F3D138
:10D2100071880629F0D3B94201D99942ECD19A42DA
:10D2200003D0994201D08A42E6D8052160462954AC
:10D2300020881221401C80B2208029542088401C64
:10D2400080B220804119308802F080FD218840188A
:10D2500080B220804119708802F078FD2188401842
:10D2600020800020F8BD0000FFFF000010B5FEF791
:10D2700043FB10BDF8B5164801F058F8144D0026D0
:10D280000C3D144C002807D0616900291CD00120F6
:10D290006A461070684616E02878002805D0616953
:10D2A000002911D0684606700DE0687800280DD07E
:10D2B000A168094800220068FEF798FB002803D007
:10D2C000A169002900D088472E70F8BD6168F0E799
:10D2D000742100204C370020080D020070B5094B66
:10D2E00004469E7A082000250E4207D00648844254
:10D2F00002D01889A04202D10020156070BD05201F
:10D3000070BD00006C380020FFFF00000C21484376
:10D31000064910B5012240188272911E0181FF2139
:10D32000C1720721FDF779FF10BD00006C380020A5
:10D33000EFF30580C005C00D17D0103840B20028AB
:10D3400008DA0107090F08398908094A890089188C
:10D35000C96904E08108074A8900891809688007BB
:10D36000C00EC1400806800F7047042070470000BF
:10D3700000ED00E000E400E0EFF30580C005C00D23
:10D3800017D0103840B2002808DA0107090F083911
:10D390008908094A89008918C96904E08108074A8F
:10D3A0008900891809688007C00EC1400806800FEF
:10D3B000704704207047000000ED00E000E400E04A
:10D3C000EFF30580C005C00D17D0103840B200281B
:10D3D00008DA0107090F08398908094A89008918FC
:10D3E000C96904E08108074A89008918096880072B
:10D3F000C00EC1400806800F70470420704700002F
:10D4000000ED00E000E400E010B5134C20790007C7
:10D410001FD46069401C6061E068002801D00420CE
:10D4200004E000F0B5FF002803D0022002F032FB38
:10D4300010BD2069002809D06068C10701D0032011
:10D44000F4E70121084360600020EFE7FFF748FEA2
:10D4500010BD02F013FB10BDE021002010B50848FC
:10D4600041680A0708D48A0702D5012211434160A6
:10D47000022002F00FFB10BD02F000FB10BD000007
:10D48000E0210020F8B500260124154D23E069684D
:10D49000F0004718387821462A698140114218D097
:10D4A0008A432A6101F086F93A782146EB68914077
:10D4B00019400346934099420BD17978012901D054
:10D4C000012100E000217B684140002B01D0104683
:10D4D0009847761CF6B228788642D8D3F8BD00006B
:10D4E00004220020FEB50E46044681786A46234891
:10D4F00001F09EFC002826D160780C21204F484383
:10D50000C019807A40061FD4022E1DD0012E1DD0D6
:10D510001C4DA0781C2148431B49002341181C22A4
:10D520006846A847002813D0022E0CD020780C2182
:10D53000484313490C314018807A144980000A5836
:10D54000214668469047FEBD114DE2E7114DE0E7E8
:10D55000022EF8D060780C214843C019817ABF228E
:10D560001140817260781C214843054940394118B7
:10D570001C231A466846A847D8E70000D821002097
:10D580006C38002001FA0100683700200C0D020001
:10D59000E5F1010009F1010070B50546114A124894
:10D5A00000241C2363431B189B7EFF2B04D0641CA8
:10D5B000072CF6D3104670BD0A78022A09D01C2227
:10D5C00062431018FD22827607221030FDF7FEFD1F
:10D5D00004E01C2161430818FE2181762C70002292
:10D5E000E8E700004380000068370020F7B5052514
:10D5F0000F4F06460024002E0AD01C206043C0199D
:10D60000072231461030FDF71AFE002807D00AE045
:10D610001C206043C019018B0298814203D10198FC
:10D620000025046002E0641C072CE4D32846FEBDFC
:10D63000683700207CB5054681B26A46074801F08C
:10D64000F7FB040008D16021684601F01BFC0400D0
:10D6500002D1284601F050F920467CBDD821002097
:10D6600010B5100001D0FEF747F9002010BD0000F2
:10D670001FB56946087301F06FFC002801D0FEF762
:10D680003BF903A800F01AFA002801D0FEF734F99C
:10D6900001A805210130FDF7C0FD69464979012047
:10D6A00001438122114030314A06520E69464A71C7
:10D6B00007228A711022CA710549009169460871D2
:10D6C000044800F00FFB002801D0FEF715F91FBD3C
:10D6D00061D6010082200020F0B591B00546FF24FC
:10D6E000002007940290E9480078002849D0E84FCC
:10D6F0003868002845D001A800F0D2F9002801D0F0
:10D70000FEF7FAF8281D05902C2069460883FF20B3
:10D71000002688710E710396DD4C28880C3C102879
:10D720000ED0A88803AA0221FFF7D8FD002807D150
:10D7300003980C2141430919CA7A69468A714871D4
:10D740002A881320192A7DD00FDC102A1BD0112A19
:10D7500055D0132A77D0142A13D103980C214843AB
:10D760000019C07AFF286FD0A1E0CA491A2A6CD0EC
:10D770001E2A65D0522A04D1B87A8000095801A81F
:10D78000884711B0F0BDC44F03AA01213846FFF706
:10D79000A5FD0028F5D103990C2048430222001969
:10D7A000827211236A4613745171A9880181294636
:10D7B000083107220091FDF709FDE87DC10707D078
:10D7C0004108B2480830405CFF2808D0079006E0C6
:10D7D0003A4607A90098FFF709FF002837D10399B7
:10D7E0000C22514309190798C8728A7A08231A43F0
:10D7F0008A726946887101A8FFF7B2F827E003989A
:10D800000C2148430119887AFD22104088720107D3
:10D8100006D5C0090DD0002101A8FFF763FE08E07E
:10D8200068468079FF2804D001F066F8FF20694639
:10D83000887103980C225043102100198172122024
:10D84000694603E08BE043E014E0E4E0087432460C
:10D8500004A901A8FEF75CF86846007C122890D164
:10D8600003980C2141430919897A012989D0FFF7CE
:10D870004DFD86E72A8A07A90020FFF7B7FE00289A
:10D880000ED103990C22514309190798C8728A7A5C
:10D8900008231A438A726946887101A8FFF760F865
:10D8A00003980C2148430019C07AFF2806D003983A
:10D8B0001C21484376494C394018029003981C219A
:10D8C000484376494218A8880023029986DF58E722
:10D8D0006946087403980C2148430119887A042288
:10D8E00010438872CA7AFF2A0BD0402210438872F4
:10D8F0001620694608740023A8881A4685217FDF10
:10D9000021E007A8FFF748FE00281FD006460020A8
:10D910000D9003990C224A431219D27A1C235A43C0
:10D920005E4B0F90D2180E921C2251431A46C432FD
:10D930008918109009910A900B900C903A1DA888B4
:10D9400009AB00217FDF002893D180E76946079863
:10D95000887103990C2251430919C872D7E7787A64
:10D960000C2140084000787203986F4602464843F5
:10D97000011984468B7AFB2003408B721420387483
:10D98000287A002806D05806DFD4C87AFFF752FE5E
:10D990002E7A5CE7687A4007D7D5B879FF28D4D0CB
:10D9A00008273B438B726B7B9B0708D51C250346DE
:10D9B0006B433A4D5B199D7E6D086D009D76CB7A69
:10D9C000FF2BC2D06346E35C022B10D01C225043D5
:10D9D000324D072240191030FDF7F8FB6846807978
:10D9E0001C2148434019817EFD2211400DE01C217D
:10D9F0004A4327494C3951184A8A1C214843274930
:10DA000040180283817E490849008176012101A8DE
:10DA1000FFF768FD1BE7287A0209012A23D10007D6
:10DA2000000F01281FD103980C2242431219927A49
:10DA3000120718D5242148431549303940181A21B6
:10DA40000830FDF7EAFB16206946087403980C219C
:10DA500048430119887A602210438872787A02213B
:10DA6000084378720FE003980C2250430019827A21
:10DA700080231A43827215206A461074B87A800097
:10DA8000095801A888470026E1E60000C8210020C7
:10DA9000783800202C0D0200FFFF000068370020BE
:10DAA000002806D0FF21017041708170C1700020F4
:10DAB00070470148704700000E800000F0B585B047
:10DAC000040036D029480025056045728572284635
:10DAD000FFF71CFC254824213038FDF79EFB00266B
:10DAE000FF27304600F008FF21488755761C072E97
:10DAF000F7D36021684681800721C1801D481C49F9
:10DB000000900831684601F0A1FA00280FD1184EA4
:10DB10000120083E3070207800280CD069468888A3
:10DB2000C988484381B23046103001F0ABF905B0E6
:10DB3000F0BD1148FBE7114F00240D48A1B202AA25
:10DB4000083001F075F9002809D11C206043C01984
:10DB500000231C2202A901F025FA002801D035700B
:10DB6000E5E7641C072CE8D3E1E7000078380020E3
:10DB7000D021002081DB01000E80000068370020EA
:10DB8000FFB5554891B000681A9F1E4600286AD01C
:10DB9000602F68D86846FFF783FF002801D0FDF7A3
:10DBA000ABFE00246846047004712546059706966E
:10DBB000A9B20FAA494801F03BF9002806D1082272
:10DBC0000FA91198FDF73BFB002819D06D1C072DFC
:10DBD000EED3684680780790FF2844D0129820251D
:10DBE000032810D03E481C21301AFDF7C5FA012742
:10DBF000072825D204A802901398002812D019E013
:10DC000068468570E5E7602F03D0402069460871BB
:10DC100001E06846057168460179032001436846C2
:10DC200001714FE00799384688402C4910394968FE
:10DC3000084218D0079802F0E9F86846057138E004
:10DC400025481C214C38301AFDF796FA00280CD0D4
:10DC5000214D2421303D701BFDF78EFA00281AD08B
:10DC600040206946087115B0F0BD04A802906846CE
:10DC70000571447018480B940C300C90583807907C
:10DC8000684680781C21484315490595401808903E
:10DC900007A806900DE03021684601714470C770F6
:10DCA0000D480C38807A800703D428462421FDF7DC
:10DCB000B4FA12986946022808790BD00221084369
:10DCC0006946087104A8029001A96846139AFDF7F5
:10DCD0001FFEC8E73843F4E778380020D821002039
:10DCE0006837002070B5064618480D4600780028B1
:10DCF0000ED01749002E0ED0002D0CD02868002819
:10DD000009D0144C2168002907D011480A3870BD89
:10DD10000F48801F70BD084670BD20600522691D38
:10DD2000201DFDF753FA2879A072207A02214008BD
:10DD300040000843FB2210402072E0790123184381
:10DD400008431040E0710020307070BDC8210020F1
:10DD50000E8000007838002005490120096800295C
:10DD600001D0002070470349096A0029F9D17047A2
:10DD7000C4350020F820002010B5002803D0112859
:10DD800002D0FDF7E1FD10BD0248082241681143B1
:10DD9000416010BDE021002010B51C4C21782046C8
:10DDA0004068012906D0022929D0032912D1000791
:10DDB00017D513E0000711D41548142201785143F8
:10DDC0000818C188A28B891A0904090CC18002D0E5
:10DDD00001F018FE10BDFFF7E7F910BD00F06AFB77
:10DDE00010BD6069401C606100F0D2FA002803D0C9
:10DDF000207801F0EFFC10BDFFF772F910BD6078DC
:10DE0000044980000858804710BD0000E021002030
:10DE10000C390020500D020010B528DFFFF7ACFFD1
:10DE200010BD10B529DFFFF7A7FF10BD002804D0F3
:10DE30000349496D016000207047032070470000CE
:10DE4000043A00200EB5112069460872132211A170
:10DE500002A87CDF002801D0FDF74EFD124878DFD4
:10DE6000002801D0FDF748FD0020FF22009041323C
:10DE7000694601900A804122D2004A808880FF20B2
:10DE80009130C88068467ADF002801D0FDF734FD64
:10DE90000EBD00004E6F726469635F467265655225
:10DEA000544F535F48524D0041030000002070471B
:10DEB0000020704700207047F8B5064640782421BE
:10DEC00004464C4324490C2250436118224A002541
:10DED0004B6824328018AE462F469C46002B0CD04F
:10DEE000827A1346D20908D05A0606D40D461A4A39
:10DEF000614689B2175908358E46174C008924347B
:10DF00003B4672462946A9DF0B2819D0002800D0CD
:10DF10001248012F13D170780C2148430019008951
:10DF20000F4AA7DF00280AD00E49884212D00828DD
:10DF300010D0891C88420DD011280BD00020F8BDCC
:10DF400070780C2148430123001900897246294644
:10DF5000A9DFE0E70148F8BD483800204180000013
:10DF6000FFFF00000230000070B50C4601466078EB
:10DF70002422084D50434019382301F013F800289B
:10DF800007D161782422514349194A68521C00D1B3
:10DF90004A6070BD48380020F3B589B00D461A209C
:10DFA0006946888368780C2103274843224E3B4604
:10DFB0008019008907AA6946AADF002838D1687845
:10DFC00024214843741A001969468A8B0830FDF7EA
:10DFD00036F90028687807D0242148430119496898
:10DFE00000290DD0154E0CE00C2141438919897A86
:10DFF00089071DD4242148430019FDF70EF917E0C5
:10E000000F4E27506846828B6878242148430019B8
:10E01000426068784843001969460830FDF7D6F831
:10E020006878242148430119382324220998B047ED
:10E0300000200BB0F0BD00006C380020E5F10100BD
:10E0400009F1010010B5FFF737FF10BD10B5FFF75C
:10E050008BFF10BD10B5FFF79FFF10BDF8B5074649
:10E06000104E0125BD403068FDF728FD00280DD178
:10E070000D4C2069284207D1384600F09BFB002850
:10E08000E06804D0284303E0A8432061F8BDA8431A
:10E09000E0602069002228432061A1683068FDF714
:10E0A000A5FCF8BD640D02000422002070B51B4CD5
:10E0B000207900072ED41A481422017851430D18F4
:10E0C0002E6900F043FF0146E8882A89761E8018F1
:10E0D0008019FDF751F821690025002909D06169EF
:10E0E000814206D1E560606801210843606000203C
:10E0F0000AE000F04DF9002802D00220E56003E0BC
:10E100002069002803D0032001F0C4FC70BDFEF795
:10E11000E7FF70BD01F0B2FC70BD0000E0210020FF
:10E120000C39002010B51249124801F073FA114C55
:10E1300081B22C3CA068401CA0600D486038FEF7FE
:10E140002FFA002809D0082807D00B49884204D0AC
:10E150000A49884201D0FDF7CFFB0321A068FDF7F3
:10E160000BF8002901D0012000E00020207010BD34
:10E17000C4240020AC200020043000000134000042
:10E18000F0B5002406460D46601C010795B0090F46
:10E1900008A810310C940174297B4174817CF92703
:10E1A0003940891C81741C2105A8FDF736F86846A2
:10E1B000017D10200143684601750CA806940A9061
:10E1C0000894099401220B9408A88276174968469E
:10E1D00001870D94697B08A80175A97B4175817D34
:10E1E000F7203940891C0140EF200140114308A865
:10E1F000817514216846FDF710F80EA800900DA84F
:10E2000001900FAA0021304600F012F8014668463E
:10E2100001811421448181810FA804903346F08844
:10E2200008336A4605A9A2DF15B0F0BD372A000001
:10E23000F7B542790025002A00D004252222135C7C
:10E240000222002B00D01543CBB2FF2907D90122AF
:10E250001543029A090A53709170032602E002994D
:10E2600002264B7004464034A189002901D01021B8
:10E270000D43002716E0B11C142909D9A189C91B37
:10E280004A007900091824302431FCF79FFF0CE084
:10E29000029B7A0012189B19928C1A70120A5A70FB
:10E2A000CEB27F1CA189B942E5DCA089C01BA08148
:10E2B000029805703046FEBDF8B51B4C207800284A
:10E2C00030D0E0680026002809D00025684652DFDB
:10E2D000052806D0002806D0FDF70EFB0BE001252F
:10E2E000F4E7012607E0009800F080F92169002991
:10E2F00001D000988847002D10D1608869460880B9
:10E30000A06861DF052804D0002804D0FDF7F4FAE6
:10E3100004E0012502E0E168A0688847002ED5D01E
:10E32000002DE8D0F8BD00001C22002041880548DF
:10E330000288914204D34088814201D8012070476D
:10E34000002070476C2100201048018CC9B20129BF
:10E3500017D1818C090714D1018D09060A0F03D149
:10E36000828D1206120F0ED0090F012903D1828D62
:10E370001206120F07D0032903D1808D0006000F6B
:10E3800001D000207047012070470000C00F00F04E
:10E3900070B50E481422017851430C18256900F01D
:10E3A000D5FD0146E08822896D1E80184019FCF7D2
:10E3B000E3FE07494A69824206D3824202D10869D4
:10E3C000002801D0002070BD012070BD0C39002054
:10E3D000E0210020800701D0002070470120704715
:10E3E00030B51588EC1C9C4201D90C2030BD0224AC
:10E3F0004C5513881C255B1C9BB21380CD5413888D
:10E400005B1C9BB21380012807D0022807D0032889
:10E4100007D0042807D0072030BD002004E00120E9
:10E4200002E0CC5401E00320C8541088401C108046
:10E43000002030BD10B50448017AC90702D0007829
:10E44000FEF726FC10BD0000C82000201FB50322E7
:10E450000021012002F03CF812490028C86102D1D5
:10E460000420FDF749FA00200E49012220310290D4
:10E47000034600920191039012020BA10B4802F097
:10E48000EBF9012802D00420FDF736FA08480169AB
:10E4900004221143016101F09BFF0F20FDF72CFACC
:10E4A000FBE7000080200020424C4500B1C701007E
:10E4B00000ED00E010B50448082241689143416036
:10E4C000007801F087F910BDE021002070B51446F6
:10E4D00082880E4605462088111D4118921C9942DB
:10E4E00001D8FE2A01D90C2070BD521C325420885C
:10E4F000FF21401C80B2208031542088401C80B213
:10E5000020808119288801F021FC2188401880B2E0
:10E510002080AA88002A09D0A968002908D080197B
:10E52000FCF754FE2088A98840182080002070BD88
:10E53000072070BDF8B50F4601781446054601293D
:10E5400002D16878002806D02088821C9A422DD8F3
:10E55000012902D006E00720F8BD69784118891C1E
:10E56000994223D8181A801E86B2684606802188F0
:10E57000B81C081869467DDF0028EDD128780228EC
:10E5800005D169460988B14201D809210AE008216C
:10E59000012805D16878B04202D86A46108001E0AF
:10E5A0006846068068460088FE2801D90C20F8BD20
:10E5B0002288401CB8542088401C80B220803954E6
:10E5C00020886946401C208009884018208000204F
:10E5D000F8BD0020704700207047002070470028D9
:10E5E00002D04168012008477047000070B500283C
:10E5F0000AD1064C00252168002905D00868206052
:10E60000496828468847F6E770BD0000A03800201A
:10E610008207D30EFF229A408907090E10B5994050
:10E6200000280BDA03071B0F083B9C080C4BA400C7
:10E63000E318DC6994430C43DC6107E08408094B70
:10E64000A400E418236893430B432360C106C90E5A
:10E6500001208840044908600449086010BD00009A
:10E6600000ED00E000E400E080E200E000E100E016
:10E67000F3B581B00F46019800F05AF90124002843
:10E680001E4E019817D0FEF755FC80192030007FF0
:10E690008009032802D0012806D007E01848006945
:10E6A00001998C40204201D1022100E00321019810
:10E6B00000F0CEF8FEBD00F047F90028FAD001982E
:10E6C000FEF738FC05468100C81D0E4AF93089184E
:10E6D0000A6980B222430A610B4940180021016097
:10E6E000002FE7D00198FEF725FC80003058002865
:10E6F000E0D00648AC404460FEBD0000A8380020D1
:10E7000000050050006500400060004000630040CC
:10E71000FEB5044623480E46001920214156002725
:10E72000C8171346401C01D0082738E0F278194674
:10E730002046FEF7DBFB0546401C2FD0B0780028B2
:10E7400007D01948A1000918086802229043086000
:10E7500007E000217378204600910A46019100F0FD
:10E7600065F8F078002810D01048AA001018317809
:10E7700002690F4B1A400261E206D20C8907890B2D
:10E780000A4301690A43026109E0064832784019E8
:10E790002030017F92011143017700E004273846C1
:10E7A000FEBD0000A83800200007005000650040B2
:10E7B000FFE0FCFF03490969C140C807C00F00D052
:10E7C000012070470005005070B5124D28790028CF
:10E7D00001D0082070BD0F4900204039421E0B189F
:10E7E0002033401CC0B21A702028F8D300242046E1
:10E7F000FEF76EFB641CE4B2082CF8D3032106205C
:10E80000FFF706FF01200449C00748600120287176
:10E81000002070BDE8380020006300400248007905
:10E82000002800D001207047E838002030B55200A1
:10E830000A439900039C0A432102049D0A432904C8
:10E840000A43024980004018026030BD00070050B2
:10E85000820006481018026803231B049A430260D2
:10E86000026809040A430260704700000007005074
:10E87000034940180068012800D0002070470000BC
:10E88000006000404058002800D00120704703225B
:10E89000120280184068084000D00120704710B56F
:10E8A000002809D0032806D10220FEF793F900289A
:10E8B00001D0FDF721F810BD00F078FF10BD000079
:10E8C00010B50078002807D104483B21808876DF06
:10E8D000002801D0FDF710F810BD000080200020B6
:10E8E0000021425C002A01D001207047491C062902
:10E8F000F7D300207047000070B505461C200B4977
:10E9000068434418204611300621FCF786FC204657
:10E910001021FCF782FCFF2121740020A176C04366
:10E920002083284601F072FA70BD0000683700208D
:10E930000449081820214156042901DB01207047B1
:10E9400000207047A83800200449081820214156AB
:10E95000042901D20120704700207047A838002008
:10E9600070B50D00044602D10020FCF7C5FF002C55
:10E9700002D10020FCF7C0FF287820706988617000
:10E98000090AA170A988E170090A2171E8886071FB
:10E99000000AA07170BD000070B50B4C05462068E0
:10E9A000456020692168854204D2A06B091D01F0F1
:10E9B000F8FA70BD606B091D01F0F3FAE06A854258
:10E9C000F7D2E56270BD0000F820002010B501F01C
:10E9D0004FFB0E4C2068002815D10D4801F0D3FAEA
:10E9E0000B48143001F0CFFA0948E0601430206180
:10E9F00000221021202001F06BFD2060002802D0B1
:10EA000004A101F049FC01F03DFB10BD34210020C0
:10EA100000360020546D72510000000070B5134E96
:10EA2000134C1BE001F002FD306800281AD002F000
:10EA300089F801F01DFBF068C568281D01F091FA06
:10EA4000E068401EE0606068401E606001F01AFBF4
:10EA5000286B01F03DFB284601F03AFB6068002876
:10EA6000E0D170BD02F06EF8F8E70000D835002064
:10EA7000F820002010B5026C0C46002A0CD0C168AA
:10EA80008B18C36041688B4201D2194601E00168CE
:10EA9000C1602046FCF79AFB10BD70B51646026CAB
:10EAA00000250446002A11D0002E19D0E068FCF79A
:10EAB0008DFBE168206C091AE1602268914202D264
:10EAC0006168081AE060022E17D01CE02068002858
:10EAD00019D1606801F0DCFF05460020606012E09B
:10EAE000A068FCF773FB216CA0684018A060616807
:10EAF000884208D32068A06005E0A06B002802D0FF
:10EB0000A06B401EA063A06B401CA063284670BD94
:10EB100007480168C96A002901D0002070470549EB
:10EB200009680129F9D8C16A0069081A704700000C
:10EB3000F8200020603500200B4CFFF76FFF2068A5
:10EB4000012801D901F092FBFFF7E2FF0228F4D37C
:10EB500001F06CFCFFF7DCFF022801D301F03CFB65
:10EB600001F0F0FFE9E700006035002070B50024F7
:10EB700041600B4D0061914206D8D11A82699142E1
:10EB800006D2011D286907E09A4203D2994201D3B7
:10EB9000012403E0011DE86801F003FA204670BD7E
:10EBA0003421002030B589B0274D43E00498002877
:10EBB00006DA059A0799069890470498002839DBE9
:10EBC000069C6069002802D0201D01F0CAF902A845
:10EBD00000F08EF8024604980300FCF7E1FC0A06F8
:10EBE00006062B202806062B202B0598A169034634
:10EBF00041182046FFF7BAFF01281BD1616A204661
:10EC00008847E069012815D1002000900598A16986
:10EC1000002342181946204602F020F80AE0059821
:10EC2000A061811813462046FFF7A0FF02E02046AE
:10EC300001F04EFA00231A4604A9286801F067FC87
:10EC40000028B3D109B030BD34210020FEB50F46F5
:10EC5000054601F0EBFB01A800F04AF804460198D4
:10EC6000002802D001F06EFFFEBD184E002F22D109
:10EC7000A54220D801F066FFF0682746C068C46846
:10EC8000201D01F06EF9E069012810D1A0692B4622
:10EC900041193A462046FFF769FF012807D10020B5
:10ECA0000346014600902A46204601F0D7FF616ADC
:10ECB00020468847FEBD291B306801F0FFFA01F0AD
:10ECC00041FF0028F6D101F0D1FAFEBD3421002029
:10ECD0000648416B0968002905D0416BC968C968BD
:10ECE0004968C16270470021C943FAE7F820002053
:10ECF00070B5054601F06EFE064E0446B0688442CB
:10ED000003D200F009F8012000E00020286020462E
:10ED1000B46070BD34210020F8B5144D1EE0C06809
:10ED2000C4680668201D01F01CF9616A2046884706
:10ED3000E069012812D1A0698019B04206D9246186
:10ED40006060211DE86801F02CF907E0002003460F
:10ED5000014600903246204601F080FFE8680168D5
:10ED60000029DCD12969E9602861F8BD342100203F
:10ED700001F03BF9FEE70000074CE068016800295C
:10ED800007D0C06800210068FFF760FFFFF70AFFA7
:10ED9000F3E701210020F7E73421002070B5044695
:10EDA00001F066F9254624350CE0606A00280CD095
:10EDB000284601F097FE002801D001F09BFAA06CD4
:10EDC000401EA064A06C0028EFDC0026F643A66479
:10EDD00001F058F901F04CF9254610350CE0206996
:10EDE00000280CD0284601F07DFE002801D001F05B
:10EDF00081FA606C401E6064606C0028EFDC666421
:10EE000001F040F970BD000007490979490701D4B4
:10EE100008207047002804D0044949780160002088
:10EE200070470E2070470000E02100200C390020C0
:10EE300030B5124B1B795B0701D4082030BD002888
:10EE400005D0002A03D00468002C10D101E00E2068
:10EE500030BD0B4B1D68002D09D045681889414312
:10EE600069185D89454358682818884201D80720E9
:10EE700030BD14600020516030BD0000E021002052
:10EE8000D8390020FEB5054625480E4600794007D2
:10EE900001D40820FEBD002D03D02868002834D1FD
:10EEA00001E00E20FEBD1F4C216800292DD0608995
:10EEB00021894843616841186868814225D9FFF774
:10EEC00089FA00280FD06868019029680C22514304
:10EED0000F1979680091401A39890C46FCF74CF9F2
:10EEE000002912D101E01020FEBD21463046FCF77A
:10EEF00043F9002909D1002E07D0788944430198AD
:10EF0000811900980019814201D90720FEBD002017
:10EF100002460090334629460320FEF71FF9FEBD46
:10EF2000E0210020D839002010B507484469601C52
:10EF300006D000F00BF801462046FCF71DF910BD85
:10EF400001200007406910BD0010001001200007DB
:10EF5000006980B27047000070B500240F48254654
:10EF6000047044702846FEF7E9F86D1C0A2DF9D3A9
:10EF70000B4D6C80FFF7D8FF861EFFF7E7FF464377
:10EF80000648AE60CC306C610460048144812C7012
:10EF9000AC610420EC616860002070BD0C39002079
:10EFA000E0210020FFB5274881B000791F461646B2
:10EFB0000D46400702D4082005B0F0BD002D06D054
:10EFC0000198002803D02868002815D101E00E2000
:10EFD000F2E71D4C206800280ED061892089626804
:10EFE000414389186A68914206D9002E04D0B04284
:10EFF00002D3F119814201D90720DDE70198FFF71B
:10F00000E9F900281BD03846FFF7E4F9002816D0AC
:10F010006868FFF7DFF9002811D068683246C11927
:10F020000198FCF7D3F8009628680C21484324582F
:10F03000002202212846019BA0470020BCE71020A7
:10F04000BAE70000E0210020D8390020F8B52C4DA7
:10F05000044628790E46400701D40820F8BD002C4C
:10F0600020D0002E1ED0206800281BD0FFF76EFF96
:10F070000146A088814213D3102811D3E0880028CC
:10F080000ED0FFF751FF471EFFF760FF4743E288AE
:10F09000A188A8684A431218974201D3890703D070
:10F0A0000720F8BD0E20F8BD6988012926D03160FF
:10F0B0000C22144B51437060CA185060206858509D
:10F0C000A0881081E0885081FFF740FF0646FFF7D7
:10F0D0003DFFA188E288401E514340183146FCF7AD
:10F0E00061F80446FFF732FF0146A868614308183B
:10F0F000A8606888401C68800020F8BD0420F8BD26
:10F10000E0210020D8390020F8B5044620481E46EA
:10F11000007915460F46400701D40820F8BD002F9E
:10F1200005D0002C03D02068002815D101E00E2066
:10F13000F8BD1848016800290ED04289018940684D
:10F140004A4310186268904206D9002D04D0A942A3
:10F1500002D3A819884201D90720F8BD3846FFF725
:10F1600039F9002811D03046FFF734F900280CD0C7
:10F170006068FFF72FF9002807D02B463A46214652
:10F1800001200096FDF7EAFFF8BD1020F8BD000051
:10F19000E0210020D839002010B511490246087836
:10F1A000002811D004280FD0022A16D0032A0BD130
:10F1B0000A79120711D48A69521C8A61032A08D07D
:10F1C000022802D000F006FB10BD487800F062FC77
:10F1D00010BD0D20FCF7B8FB10BDFEF7DDFD10BD26
:10F1E000E0210020F8B5044620481E460079154667
:10F1F0000F46400701D40820F8BD002F05D0002C91
:10F2000003D02068002815D101E00E20F8BD184871
:10F21000016800290ED04289018940684A431018CC
:10F220006268904206D9002D04D0A94202D3A819E1
:10F23000884201D90720F8BD3846FFF7CBF80028EF
:10F2400011D03046FFF7C6F800280CD06068FFF7F1
:10F25000C1F8002807D02B463A46214604200096E4
:10F26000FDF77CFFF8BD1020F8BD0000E021002074
:10F27000D839002070B504460025400704D0600747
:10F28000400F0821081A041901F0D0F80A48416813
:10F29000002903D10949C908C90041600168084B28
:10F2A0000A199A4204D28A4202D9436802605D1860
:10F2B00001F048FC284670BDE820002058250020B9
:10F2C000F80F000004490868002803D00868C26BE2
:10F2D000521CC26308687047F820002010B504462D
:10F2E00000F0C6FE246A00F0CDFE204610BD0000EE
:10F2F00010B5064C031F24681C601B1F1960191FE2
:10F30000034B0B60143940380A6010BD040D020035
:10F3100071ED010010B507480078002809D00548B4
:10F320000549343000F076F981B203487038FDF7B2
:10F33000B9F910BD80200020D424002030B50A483F
:10F34000FF21C57D0022094C0931094B002D625077
:10F3500007D09969437EC268D154417E491C4176E9
:10F3600030BD986930BD0000F0380020002000401A
:10F37000002500401FB501236A4613701072034830
:10F38000019106C8684690471FBD0000F038002074
:10F3900008B502490020009108BD0000802000202F
:10F3A00010B50121202805DA1A4A8140114201D105
:10F3B000194810BD8107C90E002808DA0207120F8C
:10F3C000083A9208154B9200D218D26904E08208DC
:10F3D000134B9200D2181268CA401106890F0429F3
:10F3E00011D200290FD002290DD00E494C68C30656
:10F3F000DB0E01229A40002C08D0400980000B58F7
:10F4000013430B5004E00448401C10BD0648026042
:10F41000002010BDFC06FFBC0120000000ED00E054
:10F4200000E400E03022002000E100E030B5EFF31E
:10F43000108172B60A4A54680123002C03D003706D
:10F4400000290AD00AE05360064B1D68064C25408F
:10F4500015601C6000220270F2E762B6002030BD29
:10F460003022002080E100E0FC06FFBC30B5EFF365
:10F47000108172B60A4A54680123002C03D003702D
:10F4800000290AD00AE05360064B1D68064C25404F
:10F4900015601C6000220270F2E762B6002030BDE9
:10F4A0003022002080E100E0FC06FFBC30B5EFF325
:10F4B000108172B60A4A54680123002C03D00370ED
:10F4C00000290AD00AE05360064B1D68064C25400F
:10F4D00015601C6000220270F2E762B6002030BDA9
:10F4E0003022002080E100E0FC06FFBC09494A68A8
:10F4F000002A0CD000280AD1EFF3108072B60A68F7
:10F50000054B1A6000224A60002800D162B6002034
:10F51000704700003022002000E100E009494A68FD
:10F52000002A0CD000280AD1EFF3108072B60A68C6
:10F53000054B1A6000224A60002800D162B6002004
:10F54000704700003022002000E100E010B50448C0
:10F5500001224178514041700248FDF7BAF810BDD0
:10F56000802000206424002070B51448012451211B
:10F570006425846022C004711049114800F03EF8EF
:10F580000E488C2110300160FF212D3141600A218D
:10F5900081600026067301460948083000F02EF805
:10F5A0000648FF2120300560F53184604160067314
:10F5B00001460348103000F021F870BDB42400204B
:10F5C000A420002010B503680A6889689C1A8C4240
:10F5D00002D9591A016010BD01210260017110BDEC
:10F5E00010B54B68026889689C1A8C4202D9511880
:10F5F000016010BD00210360017110BD0A7B002A6B
:10F6000003D049680160002102E00968016001211E
:10F610000171704710B5044600790028204602D0D9
:10F62000FFF7DEFF01E0FFF7CDFF206810BDFFB55B
:10F630000746806A81B0144600283DD00025384630
:10F640002030009033E00C20B96A68430E18B0886F
:10F65000801CFE2802D90C2005B0F0BD228802993A
:10F66000401C885420881622401C80B220800299B9
:10F670000A542088401C80B22080029941183088AA
:10F6800000F064FB2188401880B22080B288002AF4
:10F690000AD0B16800290FD0029BC018FBF796FD75
:10F6A0002088B188401820806D1C0098EDB2007B46
:10F6B000A842C8D80020CFE70720CDE730B59BB0DF
:10F6C000032118A80172142110A8FBF7A6FD00243D
:10F6D000012510A8109405711AA81290601C01074A
:10F6E000090F10A81031017344738473601C010763
:10F6F000090F10A81031C1730020014610A8017431
:10F7000001462448FCF778FF002801D0FCF7F4F804
:10F71000142115A8FBF781FD0120014618A810311E
:10F7200041700120014618A8103181700020014667
:10F7300018A8C1700120014618A81031017110A845
:10F7400015940576642118A817940170114815A91D
:10F750001838FCF761FD002801D0FCF7CDF84021F6
:10F760006846FBF75AFD0CA16846FCF7CFFF012065
:10F77000014608A8103101770020014608A841770A
:10F780006846FCF73FFE002801D0FCF7B5F81BB037
:10F7900030BD0000642400204E6F726469635365BD
:10F7A0006D69636F6E647563746F720010B50020CD
:10F7B000FDF710FA002801D0FCF79EF8FDF75AF982
:10F7C000002801D0FCF798F83CDF002801D0FCF7B6
:10F7D00093F810BD10B50F490028087009D0012812
:10F7E00011D0022812D0032802D14869FEF714FB79
:10F7F00010BD00208861C861074840780028F7D014
:10F80000FDF780FC10BD00F0FDF810BD00F05CF8C5
:10F8100010BD0000E02100200C390020002803D09A
:10F820000249C860002070470E2070471C2200204B
:10F830001CB5034901910091694660DF1CBD0000C1
:10F840008020002070B50E4605461446142110464F
:10F85000FBF7E3FC01200021208021612173267247
:10F860006572002D00D0A072002070BD10B5FCF7AD
:10F8700035F810BD70B5002901D08C0701D00720E4
:10F8800070BD074C0125A16062800649636010DFEE
:10F890000028F5D125701620FFF782FD70BD00000D
:10F8A0001C2200206DF8010001480078704700001C
:10F8B0001C220020002803D0024908610020704764
:10F8C0000E2070471C220020F8B5164C14226068E8
:10F8D0004008400060601448017851430E183769B1
:10F8E000FFF734FB01463846FBF746FC05466061EE
:10F8F000FFF72CFB0146F0887F1EC019FBF73CFC8C
:10F9000002228542606801D1104300E090436060AC
:10F91000E1681040084303D0002000F0BBF8F8BDB8
:10F920000220FAE7E02100200C39002010B502483F
:10F930004069FEF771FA10BDE021002010B5FFF715
:10F94000F3FA441EFFF702FB4443FFF7FFFA0449B2
:10F950004A69521E5043CA682146FEF762FA10BD3A
:10F96000E0210020F8B510481422017851430C180A
:10F970002569FFF7EBFA0146E088228980184019D3
:10F98000FBF7FAFB0F46FFF7CFFA461EFFF7DEFA4A
:10F990004643E0882289F1198018044A4019126907
:10F9A000FEF73FFAF8BD00000C390020E0210020EE
:10F9B00070B5FFF7CBFA0546FFF7B6FA441EFFF71E
:10F9C000C5FA60432946FBF7D7FBFEF725FA70BD61
:10F9D00070B5FFF7BBFA8608FFF7B8FA074949691F
:10F9E00048430446FFF7A0FA451EFFF7AFFA684305
:10F9F00032462146FEF715FA70BD0000E0210020D6
:10FA00000020704770B514481422017851430C1837
:10FA1000241DFFF79BFA6188104E884211D2FFF730
:10FA200095FA61880D1AFFF791FA8208A188E068BB
:10FA30004018216940194919FEF7F3F9FFF786FAD2
:10FA400007E0A288E06880188A082169FEF7E9F9D2
:10FA50006088F06170BD00000C390020E0210020BA
:10FA600010B505480079000703D4012000F012F812
:10FA700010BD00F003F810BDE021002010B50448CF
:10FA80000822416891434160407800F003F810BDBE
:10FA9000E0210020024948700249800008580047D0
:10FAA000E02100203C0D020010B50446FFF774FB76
:10FAB0002046FCF735FA10BD70B50C00054602D1A2
:10FAC0000020FBF719FF002D02D10020FBF714FFE7
:10FAD000207828702088FF2109020840000A6870F9
:10FAE000206809020840000CA8702068000EE87029
:10FAF00020792871207A68712089000AA871A0688D
:10FB0000000CE87170BD000010B5054800790007D1
:10FB100002D4FDF7E5FA10BDFFF7B0FF10BD0000FD
:10FB2000E021002038B500231F4A05211846FBF7C5
:10FB300055FF002801D0FBF7DFFE1C487D21009017
:10FB40000023012209011AA001F04AF81A4C7D2174
:10FB5000E0601A48009000230122C90018A001F0BB
:10FB60003FF820611748FF210090002301222D312A
:10FB700015A001F035F860611448009000230122BF
:10FB8000134914A001F02CF8A061E168002907D006
:10FB90002169002904D06169002901D0002802D11F
:10FBA0000420FBF7A9FE38BD3C220020D9BC01008F
:10FBB00042415454000000008020002025E1010053
:10FBC0004852540015F30100525254004DF5010003
:10FBD0008813000053435400FF2107481D310022C1
:10FBE00042500648828A8168895C828A521C8282DD
:10FBF0000348C1617047000000200040F038002039
:10FC0000002500401FB500216A461170107204489B
:10FC100082680192817506C8684690471FBD000042
:10FC2000F0380020F0B5454D012185B04902284645
:10FC3000FEF72DFE01270026414C002824D0FF218D
:10FC400025312846FEF71EFE00281DD0FF20253056
:10FC50002E5081203B4980008860A07E002800D182
:10FC60006F60022168460170374908680860039098
:10FC7000E17D68460172E0680190E675267606CC63
:10FC80006846083C90472BE004212846FEF7FFFD1C
:10FC9000002825D0FF2109312846FEF7F3FD002872
:10FCA0001ED0FFF74BFBE07D617E884218D1207E9D
:10FCB000002808D0627EE168E0752069E060267661
:10FCC000667610460AE0A07E002800D16F60812091
:10FCD0001C4980008860E675607EE168FFF74AFB9A
:10FCE000FF211D312846FEF7CDFD00280DD0A18A49
:10FCF000A07D814202D2FFF76FFF06E0FF211D3198
:10FD00006E50002801D0FFF77DFFFF2145312846C6
:10FD1000FEF7B8FD00280ED0FF2045302E50A07E03
:10FD2000002800D02F60E07D002804D0E675607EBA
:10FD3000E168FFF71FFB05B0F0BD000000200040A8
:10FD4000F038002000230040802400400870000AA2
:10FD50004870022070470000F8B50024EFF31080CF
:10FD60000094002845D1FFF79FFD002839D0EFF31C
:10FD70000580C005C00D18D0103840B2002808DA40
:10FD80000107090F083989081B4A89008918C969C0
:10FD900004E08108194A8900891809688007C00EA3
:10FDA000C1400806800F012823D9EFF3108072B6F6
:10FDB00013494B680122002B04D069460A700028C1
:10FDC0000AD00AE04A600F4B1E680F4D2E400E60AD
:10FDD0001D6069460C70F2E762B68878104388703F
:10FDE00007E072B668464470817802200143684695
:10FDF00081700098F8BD000000ED00E000E400E034
:10FE00003022002080E100E0FC06FFBC012181409F
:10FE1000024842688A43426070470000C8210020BF
:10FE200038B51549154A488890420FD04A78144C85
:10FE3000521CD2B24A70237B934208D3091D75DF4E
:10FE4000002803D0A169002900D0884738BD0025CB
:10FE50004D70217C002907D03B2176DF002803D09C
:10FE6000A169002900D0884761690029EED0684661
:10FE70000570884738BD000068210020FFFF0000A2
:10FE80004C370020FFB583B016460C9D0D9C1F46D5
:10FE9000022200950194039800F00CF8002807D185
:10FEA0003B461022314600950194039800F002F879
:10FEB00007B0F0BDFFB583B0074600200C9C864616
:10FEC000268805463AE07868A900421811886846F5
:10FED00081805188C1800022694601A865DF002821
:10FEE00039D1684601780598814226D170460028AC
:10FEF00001D0002200E002222088891842180D99C2
:10FF00008A4227D8714600290AD1401C80B220803D
:10FF1000069A049911542088401C208001208646AE
:10FF2000218806980A18694601A865DF002812D1C1
:10FF3000694620880978401820806D1C3888A842BE
:10FF4000C1DC704600280AD02088801B401E80B289
:10FF5000FF2802D90C2007B0F0BD06998855002073
:10FF6000F9E74368826801699A60836842685A6069
:10FF70004A68824201D182684A60002202610868B0
:10FF8000401E086070470146083100224160D2439C
:10FF9000C160826001610021016070470021016140
:10FFA000704730B50B685A1C02D00246083202E096
:10FFB000026904E02246546825689D42FAD95368D4
:10FFC0004B6099608A60516008610168491C01605A
:10FFD00030BD42684A6093688B6093685960916055
:10FFE00008610168491C0160704708B5EFF3108093
:10FFF000002811D1FFF758FC00280ED0FDF798F922
:020000040002F8
:10000000012809D90020694608706846FFF70EFAF2
:10001000002801D0FBF770FC08BD72B608BD08B51A
:10002000EFF31080002811D1FFF73EFC00280ED01E
:10003000FDF7C6F9012809D900206946087068460D
:10004000FFF734FA002801D0FBF756FC08BD72B662
:1000500008BD10B562B6FFF727FC002806D0FDF7F3
:100060008BF9012802D90020FFF758FA10BD0000D3
:1000700010B5FFF7BAFF02480168491C016010BDC6
:10008000F020002010B5104C2068401E206019D1CF
:1000900062B6FFF709FC002806D0FDF749F90128F0
:1000A00002D90020FFF722FA606800280AD0002059
:1000B0006060012005490007486040BFBFF34F8FD3
:1000C000BFF36F8F10BD0000F020002000ED00E0B6
:1000D0007047000008B5009068468078810703D516
:1000E0006946497881F31088C00712D009496846EB
:1000F00000784A68002A0CD000280AD1EFF310805B
:1001000072B60A68044B1A6000224A60002800D1C7
:1001100062B608BD3022002000E100E038B50024BE
:10012000EFF31080009400281DD1FFF7BDFB0028DD
:1001300011D0FDF7FDF8012815D96846FFF776F9CB
:10014000002801D0FBF7D8FB6946887801210843D5
:100150006946887007E072B668464470817802206C
:10016000014368468170009C00F068F9684600947D
:100170008078810703D56946497881F31088C007E4
:1001800003D068460078FFF7B1F938BD10B50020FC
:10019000FEF725FA0C4A20210A4891600B4A0121FA
:1001A0005160816001600A490868FF221202904391
:1001B00003229203104308600120064940040860AE
:1001C00010BD000000100140001501400013014067
:1001D00010E400E000E100E0F8B504461E48844267
:1001E00000D90446EFF310800026002811D1FFF754
:1001F0005BFB00280CD0FDF7BFF8012809D9684641
:100200000670FFF733F9002803D0FBF775FB00E019
:1002100072B60120124D114AA860124948680019AF
:100220000002000A0864FF204130165001263604FF
:100230006E60FDF791FD002808D0002C06D0BFF3BA
:100240004F8F094820BF01680029FBD0FFF701FF4D
:10025000AE6001206860F8BDFDFFFF0000100140A6
:10026000001301400015014000E200E00848016869
:10027000002902D001214160704701200549000793
:10028000486040BFBFF34F8FBFF36F8F70470000D0
:10029000F020002000ED00E010B5074B0022D40054
:1002A0001C59002C03D0521C022AF8D310BDD200D6
:1002B0009950D118486010BD5035002070B50D46DA
:1002C0000446FFF7D5FE616C0020491C00D1606434
:1002D000A16C491C00D1A064FFF7D4FEA06B0028DC
:1002E00004D120462946243000F026F82046FEF7A7
:1002F00055FD70BD0149012008627047F8200020BB
:1003000070B50B4D0C4629681831FFF74AFE286876
:10031000001DFFF726FE601C04D028690019FEF7B7
:100320003BFB70BD29680348091DFFF752FE70BDF5
:10033000F8200020EC35002070B5074C0D462168F0
:100340001831FFF746FE2068001DFFF70AFE2069FE
:100350004019FEF721FB70BDF820002070B50400A5
:1003600025D0154DE06A2968C96A88421FD2A06964
:10037000002804DB28680321C06A081AA061E06A2B
:1003800014220E4E504361698019814210D1201D04
:10039000FFF7E7FD2868C06AE0626969884200D912
:1003A0006861142148438019211DFFF712FE70BDBA
:1003B0002868C06AE06270BDF82000206035002027
:1003C00002494A6A0260096941607047F8200020CA
:1003D0001FB500240D4801900094029423463C224E
:1003E0000BA103940C4800F037FA01280CD100F05F
:1003F00013FC012808D1FFF712FE04480121083838
:100400008161046100F048F81FBD00000021002058
:1004100049444C450000000039EB010002490A69DB
:100420001018086170470000F82000200248016B96
:10043000491C016370470000F82000201048016B40
:10044000002902D0012101627047002101620D499B
:1004500001E0521E4261426914235A438A58002A1D
:100460004269F6D05A4351184A680B46526808331D
:100470004A609A4201D152684A60D168016070476F
:10048000F8200020603500200179002902D1007B8E
:10049000002800D0012070470B4C211DC869FF22A5
:1004A000120490430322920510431025C861FFF700
:1004B0006DFE064900200860206928432061FAF794
:1004C00009FEFFF792FDFEE700ED00E0F0200020BE
:1004D00070B500240E460546002914D07043401C18
:1004E0004C30FEF7C7FE00280BD00446002E0CD07F
:1004F00020464C302060266401212046E56300F050
:100500008EF8204670BD0020EAE72460F3E7FFB5CF
:10051000002583B01E4604462F46FFF7A9FDA06BB9
:1005200000282AD0E56820460499FEF7A3FA002E99
:1005300010D0E560606A002807D02046243000F023
:10054000D1FA002801D0FFF791FEFFF79BFD0120B3
:1005500007B0F0BDA06B401EA0632068002802D148
:10056000FEF7B0FE606020690028EED02046103013
:1005700000F0B8FA0128E6D0E7E70598002802D095
:10058000002D03D006E0FFF77DFD1EE06846FFF773
:1005900017FF0125FFF776FDFFF748FFFFF768FD1E
:1005A000606C401C00D16764A06C401C00D1A76443
:1005B000FFF768FD05A9684600F02AF9002806D073
:1005C0002046FEF7EBFB00F0BDFA0020C0E7FFF786
:1005D0004FFDA06B002807D0FFF754FD2046FEF723
:1005E000DDFB00F0AFFA98E7FFF74CFD206800282C
:1005F00006D1FFF73DFD6068FFF7B0FEFFF742FD53
:10060000204624300599FFF77BFE2046FEF7C6FB07
:1006100000F098FA002880D1FFF728FE7DE770B53A
:100620000D460446FFF724FD216CE06B484321682A
:10063000401860600020A063A160E06B216C401E48
:10064000484321684018E0600020C0436064A06413
:1006500020461030002D09D0FFF795FC20462430AD
:10066000FFF791FCFFF70EFD012070BD2169002905
:10067000F8D000F037FA0128F4D1FFF7F7FDF1E7E1
:10068000FFB5002583B01E4604462F46FFF7F0FC59
:10069000A06BE16B884207D3022E05D00598002895
:1006A0001AD0002D1BD01EE0324620460499FEF7DA
:1006B000F4F9616A002906D02046243000F012FACD
:1006C000012802D003E0002801D0FFF7CFFDFFF79B
:1006D000D9FC012007B0F0BDFFF7D4FC1EE068464E
:1006E000FFF76EFE0125FFF7CDFCFFF79FFEFFF73A
:1006F000BFFC606C401C00D16764A06C401C00D142
:10070000A764FFF7BFFC05A9684600F081F8002840
:1007100006D02046FEF742FB00F014FA0020D9E78D
:10072000FFF7A6FCA06BE16B884210D1FFF7AAFC93
:10073000204610300599FFF7E3FD2046FEF72EFB1B
:1007400000F000FA0028A1D1FFF790FD9EE7FFF727
:1007500099FC2046FEF722FB00F0F4F996E7FFB57E
:1007600081B01E4615460446FFF7F6FA0746A06B11
:10077000E16B884208D3022E06D000243846FFF7EA
:10078000A9FC204605B0F0BD324620460299FEF78E
:1007900084F9A06C401C04D0A06C401CA06401240F
:1007A000ECE7606A0028FAD02046243000F09AF97D
:1007B0000028F4D0002DF2D001202860EFE770B5BA
:1007C0000D460446FFF7C8FA0646A06BE16B884267
:1007D00018D2A06B401CA063A06C401C04D0A06C7D
:1007E000401CA06401240EE0606A0028FAD0204674
:1007F000243000F077F90028F4D0002DF2D0012049
:100800002860EFE700243046FFF764FC204670BD07
:1008100070B50D460446FFF72BFC0E4A1169286897
:10082000431C0FD02368526A934202D062688A4206
:100830000AD96268891A814206D2401A2860204685
:10084000FFF7BEFD002400E00124FFF71BFC20465B
:1008500070BD0000F8200020FFB581B00C98950015
:100860000A9F002802D12846FEF704FD060016D094
:100870004820FEF7FFFC040030460ED0A522294692
:100880002063FAF7C3FC206B2D1F4019C008C0007D
:1008900000903D460020029904E0FFF719FC002477
:1008A000E44380E022180B5C203213750A5C002AB6
:1008B00002D0401C0428F5D3002637200655032D0E
:1008C00000D30225E562E663201DA563FFF766FB02
:1008D00020461830FFF762FB24610320411B64624D
:1008E000A161266444200655049A01990098FEF7F8
:1008F000FFFC20600B98002800D00460FFF7B8FBD5
:100900002A4DE868401CE8602868002803D0A869E0
:10091000002828D02CE02C60E868012828D1002687
:100920001420234970434018FFF72DFB761C032E3B
:10093000F6D31F483C30FFF726FB1D485030FFF729
:1009400022FB1B486430FFF71EFB19487830FFF785
:100950001AFB17488C30FFF716FB15483C306863CC
:100960001430A86304E02868C06AB84200D82C603C
:10097000A86A401CA862E06A6969884200D9686177
:10098000142148430A494018211DFFF722FB012486
:10099000FFF778FBA869002805D02868C06AB8422C
:1009A00001D2FFF763FC204605B0F0BDF82000201F
:1009B0006035002006488169002904D0006B0028BA
:1009C00003D00020704701207047022070470000CC
:1009D000F82000200148006970470000F82000203E
:1009E0000148006970470000F8200020F8B5264C47
:1009F0000027206B002808D0E069401CE061206AD5
:100A0000002800D001273846F8BD2069401C20612D
:100A10002669002E08D1606BA16B6163A063606AD8
:100A2000401C6062FEF754F9E06A8642E7D3606BCF
:100A30000068002807D0606BC068C5686868864297
:100A400004D2E062DBE70020C043FAE7281DFFF78D
:100A500088FAA86A002803D028461830FFF781FAE0
:100A6000E86A6169884200D96061142148430749F6
:100A70004018291DFFF7ADFAE86A2168C96A884263
:100A8000D5D30127D3E70000F820002060350020EF
:100A900010B50021044600281ED0E06B401EE06324
:100AA000A36BE26A9A4217D0002815D1201DFFF7E8
:100AB00058FAA06B0321E062081AA0610749E06AB6
:100AC0004A69904200D948611421484304494018BA
